{
  "contractName": "ManagerSubastas",
  "abi": [
    {
      "constant": true,
      "inputs": [
        {
          "internalType": "uint256",
          "name": "",
          "type": "uint256"
        }
      ],
      "name": "newContractsAccts",
      "outputs": [
        {
          "internalType": "address",
          "name": "",
          "type": "address"
        }
      ],
      "payable": false,
      "stateMutability": "view",
      "type": "function"
    },
    {
      "constant": false,
      "inputs": [
        {
          "internalType": "uint256",
          "name": "_biddingTime",
          "type": "uint256"
        },
        {
          "internalType": "address payable",
          "name": "_beneficiary",
          "type": "address"
        },
        {
          "internalType": "string",
          "name": "nameContract",
          "type": "string"
        }
      ],
      "name": "createContract",
      "outputs": [
        {
          "internalType": "address",
          "name": "",
          "type": "address"
        }
      ],
      "payable": false,
      "stateMutability": "nonpayable",
      "type": "function"
    },
    {
      "constant": false,
      "inputs": [],
      "name": "getContracts",
      "outputs": [
        {
          "internalType": "address[]",
          "name": "",
          "type": "address[]"
        }
      ],
      "payable": false,
      "stateMutability": "nonpayable",
      "type": "function"
    },
    {
      "constant": false,
      "inputs": [
        {
          "internalType": "address",
          "name": "_address",
          "type": "address"
        }
      ],
      "name": "getContractByAddress",
      "outputs": [
        {
          "internalType": "string",
          "name": "",
          "type": "string"
        },
        {
          "internalType": "uint256",
          "name": "",
          "type": "uint256"
        },
        {
          "internalType": "uint256",
          "name": "",
          "type": "uint256"
        }
      ],
      "payable": false,
      "stateMutability": "nonpayable",
      "type": "function"
    }
  ],
  "bytecode": "0x608060405234801561001057600080fd5b50610fa0806100206000396000f3fe608060405234801561001057600080fd5b506004361061004c5760003560e01c8063517ed9791461005157806352214c1014610176578063a3d4551b146101e4578063c3a2a93a146102af575b600080fd5b6101346004803603606081101561006757600080fd5b8101908080359060200190929190803573ffffffffffffffffffffffffffffffffffffffff169060200190929190803590602001906401000000008111156100ae57600080fd5b8201836020820111156100c057600080fd5b803590602001918460018302840111640100000000831117156100e257600080fd5b91908080601f016020809104026020016040519081016040528093929190818152602001838380828437600081840152601f19601f82011690508083019250505050505050919291929050505061030e565b604051808273ffffffffffffffffffffffffffffffffffffffff1673ffffffffffffffffffffffffffffffffffffffff16815260200191505060405180910390f35b6101a26004803603602081101561018c57600080fd5b81019080803590602001909291905050506104b3565b604051808273ffffffffffffffffffffffffffffffffffffffff1673ffffffffffffffffffffffffffffffffffffffff16815260200191505060405180910390f35b610226600480360360208110156101fa57600080fd5b81019080803573ffffffffffffffffffffffffffffffffffffffff1690602001909291905050506104ef565b6040518080602001848152602001838152602001828103825285818151815260200191508051906020019080838360005b83811015610272578082015181840152602081019050610257565b50505050905090810190601f16801561029f5780820380516001836020036101000a031916815260200191505b5094505050505060405180910390f35b6102b7610662565b6040518080602001828103825283818151815260200191508051906020019060200280838360005b838110156102fa5780820151818401526020810190506102df565b505050509050019250505060405180910390f35b600080848460405161031f906106f0565b808381526020018273ffffffffffffffffffffffffffffffffffffffff1673ffffffffffffffffffffffffffffffffffffffff16815260200192505050604051809103906000f080158015610378573d6000803e3d6000fd5b509050600042905060405180608001604052808581526020018281526020018783018152602001604051806020016040528060008152508152506000808473ffffffffffffffffffffffffffffffffffffffff1673ffffffffffffffffffffffffffffffffffffffff168152602001908152602001600020600082015181600001908051906020019061040c9291906106fd565b506020820151816001015560408201518160020155606082015181600301908051906020019061043d9291906106fd565b5090505060018290806001815401808255809150509060018203906000526020600020016000909192909190916101000a81548173ffffffffffffffffffffffffffffffffffffffff021916908373ffffffffffffffffffffffffffffffffffffffff1602179055505081925050509392505050565b600181815481106104c057fe5b906000526020600020016000915054906101000a900473ffffffffffffffffffffffffffffffffffffffff1681565b60606000806000808573ffffffffffffffffffffffffffffffffffffffff1673ffffffffffffffffffffffffffffffffffffffff1681526020019081526020016000206000016000808673ffffffffffffffffffffffffffffffffffffffff1673ffffffffffffffffffffffffffffffffffffffff168152602001908152602001600020600101546000808773ffffffffffffffffffffffffffffffffffffffff1673ffffffffffffffffffffffffffffffffffffffff16815260200190815260200160002060020154828054600181600116156101000203166002900480601f01602080910402602001604051908101604052809291908181526020018280546001816001161561010002031660029004801561064e5780601f106106235761010080835404028352916020019161064e565b820191906000526020600020905b81548152906001019060200180831161063157829003601f168201915b505050505092509250925092509193909250565b606060018054806020026020016040519081016040528092919081815260200182805480156106e657602002820191906000526020600020905b8160009054906101000a900473ffffffffffffffffffffffffffffffffffffffff1673ffffffffffffffffffffffffffffffffffffffff168152602001906001019080831161069c575b5050505050905090565b6107c9806107a383390190565b828054600181600116156101000203166002900490600052602060002090601f016020900481019282601f1061073e57805160ff191683800117855561076c565b8280016001018555821561076c579182015b8281111561076b578251825591602001919060010190610750565b5b509050610779919061077d565b5090565b61079f91905b8082111561079b576000816000905550600101610783565b5090565b9056fe608060405234801561001057600080fd5b506040516107c93803806107c98339818101604052604081101561003357600080fd5b810190808051906020019092919080519060200190929190505050806000806101000a81548173ffffffffffffffffffffffffffffffffffffffff021916908373ffffffffffffffffffffffffffffffffffffffff1602179055504260018190555081600281905550505061071c806100ad6000396000f3fe60806040526004361061007b5760003560e01c80634f245ef71161004e5780634f245ef71461012757806391f9015714610152578063d074a38d146101a9578063d57bde79146101d45761007b565b80631998aeef146100805780632a24f46c1461008a57806338af3eed146100a15780633ccfd60b146100f8575b600080fd5b6100886101ff565b005b34801561009657600080fd5b5061009f610423565b005b3480156100ad57600080fd5b506100b6610566565b604051808273ffffffffffffffffffffffffffffffffffffffff1673ffffffffffffffffffffffffffffffffffffffff16815260200191505060405180910390f35b34801561010457600080fd5b5061010d61058b565b604051808215151515815260200191505060405180910390f35b34801561013357600080fd5b5061013c6106af565b6040518082815260200191505060405180910390f35b34801561015e57600080fd5b506101676106b5565b604051808273ffffffffffffffffffffffffffffffffffffffff1673ffffffffffffffffffffffffffffffffffffffff16815260200191505060405180910390f35b3480156101b557600080fd5b506101be6106db565b6040518082815260200191505060405180910390f35b3480156101e057600080fd5b506101e96106e1565b6040518082815260200191505060405180910390f35b6002546001540142111561027b576040517f08c379a00000000000000000000000000000000000000000000000000000000081526004018080602001828103825260168152602001807f4c61207375626173746120686120657870697261646f0000000000000000000081525060200191505060405180910390fd5b60045434116102f2576040517f08c379a00000000000000000000000000000000000000000000000000000000081526004018080602001828103825260198152602001807f4c612073756261737461206465626520736572206d61796f720000000000000081525060200191505060405180910390fd5b60006004541461036e5760045460056000600360009054906101000a900473ffffffffffffffffffffffffffffffffffffffff1673ffffffffffffffffffffffffffffffffffffffff1673ffffffffffffffffffffffffffffffffffffffff168152602001908152602001600020600082825401925050819055505b33600360006101000a81548173ffffffffffffffffffffffffffffffffffffffff021916908373ffffffffffffffffffffffffffffffffffffffff160217905550346004819055507ff4757a49b326036464bec6fe419a4ae38c8a02ce3e68bf0809674f6aab8ad3003334604051808373ffffffffffffffffffffffffffffffffffffffff1673ffffffffffffffffffffffffffffffffffffffff1681526020018281526020019250505060405180910390a1565b6002546001540142101561043657600080fd5b600660009054906101000a900460ff161561045057600080fd5b6001600660006101000a81548160ff0219169083151502179055507fdaec4582d5d9595688c8c98545fdd1c696d41c6aeaeb636737e84ed2f5c00eda600360009054906101000a900473ffffffffffffffffffffffffffffffffffffffff16600454604051808373ffffffffffffffffffffffffffffffffffffffff1673ffffffffffffffffffffffffffffffffffffffff1681526020018281526020019250505060405180910390a16000809054906101000a900473ffffffffffffffffffffffffffffffffffffffff1673ffffffffffffffffffffffffffffffffffffffff166108fc6004549081150290604051600060405180830381858888f19350505050158015610563573d6000803e3d6000fd5b50565b6000809054906101000a900473ffffffffffffffffffffffffffffffffffffffff1681565b600080600560003373ffffffffffffffffffffffffffffffffffffffff1673ffffffffffffffffffffffffffffffffffffffff16815260200190815260200160002054905060008111156106a6576000600560003373ffffffffffffffffffffffffffffffffffffffff1673ffffffffffffffffffffffffffffffffffffffff168152602001908152602001600020819055503373ffffffffffffffffffffffffffffffffffffffff166108fc829081150290604051600060405180830381858888f193505050506106a55780600560003373ffffffffffffffffffffffffffffffffffffffff1673ffffffffffffffffffffffffffffffffffffffff1681526020019081526020016000208190555060009150506106ac565b5b60019150505b90565b60015481565b600360009054906101000a900473ffffffffffffffffffffffffffffffffffffffff1681565b60025481565b6004548156fea265627a7a72315820c737792c94871ce7f5fc95622330805658727c3dfadd608a8bc192ce46dfe44f64736f6c63430005100032a265627a7a7231582097e0a844c01a7d67bc23f0c3a5c9f72a9bdaae5fea7c30ca8b666c6bfde8f88164736f6c63430005100032",
  "source": "pragma solidity >=0.4.25 <0.7.0;\r\n\r\nimport \"./Subasta.sol\";\r\n\r\ncontract ManagerSubastas {\r\n    struct Contrato {\r\n        string name;\r\n        uint256 auctionStart;\r\n        uint256 auctionEnd;\r\n        string description;\r\n    }\r\n    mapping(address => Contrato) newContracts;\r\n    address[] public newContractsAccts;\r\n\r\n    function createContract(\r\n        uint256 _biddingTime,\r\n        address payable _beneficiary,\r\n        string memory nameContract\r\n    ) public returns (address) {\r\n        address newContract = address(new Subasta(_biddingTime, _beneficiary));\r\n        uint256 fechaActual = now;\r\n        newContracts[newContract] = Contrato(\r\n            nameContract,\r\n            fechaActual,\r\n            fechaActual + _biddingTime,\r\n            \"\"\r\n        );\r\n        newContractsAccts.push(newContract);\r\n        return newContract;\r\n    }\r\n\r\n    function getContracts() public returns (address[] memory) {\r\n        return newContractsAccts;\r\n    }\r\n\r\n    function getContractByAddress(address _address)\r\n        public\r\n        returns (\r\n            string memory,\r\n            uint256,\r\n            uint256\r\n        )\r\n    {\r\n        return (\r\n            newContracts[_address].name,\r\n            newContracts[_address].auctionStart,\r\n            newContracts[_address].auctionEnd\r\n        );\r\n    }\r\n}\r\n",
  "sourcePath": "D:/Julian/Documents/Especializacion/SmartContract y BlockChain/MetaCoin/contracts/ManagerSubastas.sol",
  "compiler": {
    "name": "solc",
    "version": "0.5.16+commit.9c3226ce.Emscripten.clang"
  },
  "schemaVersion": "3.3.0",
  "updatedAt": "2020-12-11T12:43:17.091Z",
  "networkType": "ethereum",
  "devdoc": {
    "methods": {}
  },
  "userdoc": {
    "methods": {}
  }
}