{
  "contractName": "ManagerSubastas",
  "abi": [
    {
      "constant": true,
      "inputs": [
        {
          "internalType": "uint256",
          "name": "",
          "type": "uint256"
        }
      ],
      "name": "newContractsAccts",
      "outputs": [
        {
          "internalType": "address",
          "name": "",
          "type": "address"
        }
      ],
      "payable": false,
      "stateMutability": "view",
      "type": "function"
    },
    {
      "constant": false,
      "inputs": [
        {
          "internalType": "uint256",
          "name": "_biddingTime",
          "type": "uint256"
        },
        {
          "internalType": "address payable",
          "name": "_beneficiary",
          "type": "address"
        },
        {
          "internalType": "string",
          "name": "nameContract",
          "type": "string"
        },
        {
          "internalType": "string",
          "name": "description",
          "type": "string"
        }
      ],
      "name": "createContract",
      "outputs": [
        {
          "internalType": "address",
          "name": "",
          "type": "address"
        }
      ],
      "payable": false,
      "stateMutability": "nonpayable",
      "type": "function"
    },
    {
      "constant": false,
      "inputs": [],
      "name": "getContracts",
      "outputs": [
        {
          "internalType": "address[]",
          "name": "",
          "type": "address[]"
        }
      ],
      "payable": false,
      "stateMutability": "nonpayable",
      "type": "function"
    },
    {
      "constant": false,
      "inputs": [
        {
          "internalType": "address",
          "name": "_address",
          "type": "address"
        }
      ],
      "name": "getContractByAddress",
      "outputs": [
        {
          "internalType": "string",
          "name": "",
          "type": "string"
        },
        {
          "internalType": "uint256",
          "name": "",
          "type": "uint256"
        },
        {
          "internalType": "uint256",
          "name": "",
          "type": "uint256"
        },
        {
          "internalType": "string",
          "name": "",
          "type": "string"
        }
      ],
      "payable": false,
      "stateMutability": "nonpayable",
      "type": "function"
    }
  ],
  "bytecode": "0x608060405234801561001057600080fd5b5061103d806100206000396000f3fe608060405234801561001057600080fd5b506004361061004c5760003560e01c80631e4ee3ab1461005157806352214c101461020d578063a3d4551b1461027b578063c3a2a93a146103b2575b600080fd5b6101cb6004803603608081101561006757600080fd5b8101908080359060200190929190803573ffffffffffffffffffffffffffffffffffffffff169060200190929190803590602001906401000000008111156100ae57600080fd5b8201836020820111156100c057600080fd5b803590602001918460018302840111640100000000831117156100e257600080fd5b91908080601f016020809104026020016040519081016040528093929190818152602001838380828437600081840152601f19601f8201169050808301925050505050505091929192908035906020019064010000000081111561014557600080fd5b82018360208201111561015757600080fd5b8035906020019184600183028401116401000000008311171561017957600080fd5b91908080601f016020809104026020016040519081016040528093929190818152602001838380828437600081840152601f19601f820116905080830192505050505050509192919290505050610411565b604051808273ffffffffffffffffffffffffffffffffffffffff1673ffffffffffffffffffffffffffffffffffffffff16815260200191505060405180910390f35b6102396004803603602081101561022357600080fd5b81019080803590602001909291905050506105a8565b604051808273ffffffffffffffffffffffffffffffffffffffff1673ffffffffffffffffffffffffffffffffffffffff16815260200191505060405180910390f35b6102bd6004803603602081101561029157600080fd5b81019080803573ffffffffffffffffffffffffffffffffffffffff1690602001909291905050506105e4565b604051808060200185815260200184815260200180602001838103835287818151815260200191508051906020019080838360005b8381101561030d5780820151818401526020810190506102f2565b50505050905090810190601f16801561033a5780820380516001836020036101000a031916815260200191505b50838103825284818151815260200191508051906020019080838360005b83811015610373578082015181840152602081019050610358565b50505050905090810190601f1680156103a05780820380516001836020036101000a031916815260200191505b50965050505050505060405180910390f35b6103ba610838565b6040518080602001828103825283818151815260200191508051906020019060200280838360005b838110156103fd5780820151818401526020810190506103e2565b505050509050019250505060405180910390f35b6000808585604051610422906108c6565b808381526020018273ffffffffffffffffffffffffffffffffffffffff1673ffffffffffffffffffffffffffffffffffffffff16815260200192505050604051809103906000f08015801561047b573d6000803e3d6000fd5b509050600042905060405180608001604052808681526020018281526020018883018152602001858152506000808473ffffffffffffffffffffffffffffffffffffffff1673ffffffffffffffffffffffffffffffffffffffff16815260200190815260200160002060008201518160000190805190602001906105009291906108d3565b50602082015181600101556040820151816002015560608201518160030190805190602001906105319291906108d3565b5090505060018290806001815401808255809150509060018203906000526020600020016000909192909190916101000a81548173ffffffffffffffffffffffffffffffffffffffff021916908373ffffffffffffffffffffffffffffffffffffffff160217905550508192505050949350505050565b600181815481106105b557fe5b906000526020600020016000915054906101000a900473ffffffffffffffffffffffffffffffffffffffff1681565b606060008060606000808673ffffffffffffffffffffffffffffffffffffffff1673ffffffffffffffffffffffffffffffffffffffff1681526020019081526020016000206000016000808773ffffffffffffffffffffffffffffffffffffffff1673ffffffffffffffffffffffffffffffffffffffff168152602001908152602001600020600101546000808873ffffffffffffffffffffffffffffffffffffffff1673ffffffffffffffffffffffffffffffffffffffff168152602001908152602001600020600201546000808973ffffffffffffffffffffffffffffffffffffffff1673ffffffffffffffffffffffffffffffffffffffff168152602001908152602001600020600301838054600181600116156101000203166002900480601f0160208091040260200160405190810160405280929190818152602001828054600181600116156101000203166002900480156107865780601f1061075b57610100808354040283529160200191610786565b820191906000526020600020905b81548152906001019060200180831161076957829003601f168201915b50505050509350808054600181600116156101000203166002900480601f0160208091040260200160405190810160405280929190818152602001828054600181600116156101000203166002900480156108225780601f106107f757610100808354040283529160200191610822565b820191906000526020600020905b81548152906001019060200180831161080557829003601f168201915b5050505050905093509350935093509193509193565b606060018054806020026020016040519081016040528092919081815260200182805480156108bc57602002820191906000526020600020905b8160009054906101000a900473ffffffffffffffffffffffffffffffffffffffff1673ffffffffffffffffffffffffffffffffffffffff1681526020019060010190808311610872575b5050505050905090565b6106908061097983390190565b828054600181600116156101000203166002900490600052602060002090601f016020900481019282601f1061091457805160ff1916838001178555610942565b82800160010185558215610942579182015b82811115610941578251825591602001919060010190610926565b5b50905061094f9190610953565b5090565b61097591905b80821115610971576000816000905550600101610959565b5090565b9056fe608060405234801561001057600080fd5b506040516106903803806106908339818101604052604081101561003357600080fd5b810190808051906020019092919080519060200190929190505050806000806101000a81548173ffffffffffffffffffffffffffffffffffffffff021916908373ffffffffffffffffffffffffffffffffffffffff160217905550426001819055508160028190555050506105e3806100ad6000396000f3fe60806040526004361061007b5760003560e01c80634f245ef71161004e5780634f245ef71461012757806391f9015714610152578063d074a38d146101a9578063d57bde79146101d45761007b565b806312fa6feb146100805780631998aeef146100af5780632a24f46c146100b957806338af3eed146100d0575b600080fd5b34801561008c57600080fd5b506100956101ff565b604051808215151515815260200191505060405180910390f35b6100b7610212565b005b3480156100c557600080fd5b506100ce61041f565b005b3480156100dc57600080fd5b506100e5610551565b604051808273ffffffffffffffffffffffffffffffffffffffff1673ffffffffffffffffffffffffffffffffffffffff16815260200191505060405180910390f35b34801561013357600080fd5b5061013c610576565b6040518082815260200191505060405180910390f35b34801561015e57600080fd5b5061016761057c565b604051808273ffffffffffffffffffffffffffffffffffffffff1673ffffffffffffffffffffffffffffffffffffffff16815260200191505060405180910390f35b3480156101b557600080fd5b506101be6105a2565b6040518082815260200191505060405180910390f35b3480156101e057600080fd5b506101e96105a8565b6040518082815260200191505060405180910390f35b600560009054906101000a900460ff1681565b6002546001540142111561028e576040517f08c379a00000000000000000000000000000000000000000000000000000000081526004018080602001828103825260168152602001807f4c61207375626173746120686120657870697261646f0000000000000000000081525060200191505060405180910390fd5b6004543411610305576040517f08c379a00000000000000000000000000000000000000000000000000000000081526004018080602001828103825260198152602001807f4c612073756261737461206465626520736572206d61796f720000000000000081525060200191505060405180910390fd5b60006004541461036a57600360009054906101000a900473ffffffffffffffffffffffffffffffffffffffff1673ffffffffffffffffffffffffffffffffffffffff166108fc6004549081150290604051600060405180830381858888f19350505050505b33600360006101000a81548173ffffffffffffffffffffffffffffffffffffffff021916908373ffffffffffffffffffffffffffffffffffffffff160217905550346004819055507ff4757a49b326036464bec6fe419a4ae38c8a02ce3e68bf0809674f6aab8ad3003334604051808373ffffffffffffffffffffffffffffffffffffffff1673ffffffffffffffffffffffffffffffffffffffff1681526020018281526020019250505060405180910390a1565b6002546001540142101561043257600080fd5b600560009054906101000a900460ff161561044c57600080fd5b6001600560006101000a81548160ff0219169083151502179055507fdaec4582d5d9595688c8c98545fdd1c696d41c6aeaeb636737e84ed2f5c00eda600360009054906101000a900473ffffffffffffffffffffffffffffffffffffffff16600454604051808373ffffffffffffffffffffffffffffffffffffffff1673ffffffffffffffffffffffffffffffffffffffff1681526020018281526020019250505060405180910390a16000809054906101000a900473ffffffffffffffffffffffffffffffffffffffff1673ffffffffffffffffffffffffffffffffffffffff166108fc6004549081150290604051600060405180830381858888f1935050505050565b6000809054906101000a900473ffffffffffffffffffffffffffffffffffffffff1681565b60015481565b600360009054906101000a900473ffffffffffffffffffffffffffffffffffffffff1681565b60025481565b6004548156fea265627a7a72315820c61909f19c452aaa2e4176eda9b7d441abe1b472db0dcfcc626594af9055dd1564736f6c63430005100032a265627a7a72315820075f34e20317ee3a7c4af759ab1233f4c127bae5d060df8a9a1d4d2f7414c8ed64736f6c63430005100032",
  "source": "pragma solidity >=0.4.25 <0.7.0;\r\n\r\nimport \"./Subasta.sol\";\r\n\r\ncontract ManagerSubastas {\r\n    struct Contrato {\r\n        string name;\r\n        uint256 auctionStart;\r\n        uint256 auctionEnd;\r\n        string description;\r\n    }\r\n    mapping(address => Contrato) newContracts;\r\n    address[] public newContractsAccts;\r\n\r\n    function createContract(\r\n        uint256 _biddingTime,\r\n        address payable _beneficiary,\r\n        string memory nameContract,\r\n        string memory description\r\n    ) public returns (address) {\r\n        address newContract = address(new Subasta(_biddingTime, _beneficiary));\r\n        uint256 fechaActual = now;\r\n        newContracts[newContract] = Contrato(\r\n            nameContract,\r\n            fechaActual,\r\n            fechaActual + _biddingTime,\r\n            description\r\n        );\r\n        newContractsAccts.push(newContract);\r\n        return newContract;\r\n    }\r\n\r\n    function getContracts() public returns (address[] memory) {\r\n        return newContractsAccts;\r\n    }\r\n\r\n    function getContractByAddress(address _address)\r\n        public\r\n        returns (\r\n            string memory,\r\n            uint256,\r\n            uint256,\r\n            string memory\r\n        )\r\n    {\r\n        return (\r\n            newContracts[_address].name,\r\n            newContracts[_address].auctionStart,\r\n            newContracts[_address].auctionEnd,\r\n            newContracts[_address].description\r\n        );\r\n    }\r\n}\r\n",
  "sourcePath": "D:/Julian/Documents/Especializacion/SmartContract y BlockChain/MetaCoin/contracts/ManagerSubastas.sol",
  "compiler": {
    "name": "solc",
    "version": "0.5.16+commit.9c3226ce.Emscripten.clang"
  },
  "schemaVersion": "3.3.0",
  "updatedAt": "2020-12-13T03:52:46.666Z",
  "networkType": "ethereum",
  "devdoc": {
    "methods": {}
  },
  "userdoc": {
    "methods": {}
  }
}