{
  "contractName": "Subasta",
  "abi": [
    {
      "inputs": [
        {
          "internalType": "uint256",
          "name": "_biddingTime",
          "type": "uint256"
        },
        {
          "internalType": "address payable",
          "name": "_beneficiary",
          "type": "address"
        }
      ],
      "payable": false,
      "stateMutability": "nonpayable",
      "type": "constructor"
    },
    {
      "anonymous": false,
      "inputs": [
        {
          "indexed": false,
          "internalType": "address",
          "name": "winner",
          "type": "address"
        },
        {
          "indexed": false,
          "internalType": "uint256",
          "name": "amount",
          "type": "uint256"
        }
      ],
      "name": "AuctionEnded",
      "type": "event"
    },
    {
      "anonymous": false,
      "inputs": [
        {
          "indexed": false,
          "internalType": "address",
          "name": "bidder",
          "type": "address"
        },
        {
          "indexed": false,
          "internalType": "uint256",
          "name": "amount",
          "type": "uint256"
        }
      ],
      "name": "HighestBidIncreased",
      "type": "event"
    },
    {
      "constant": true,
      "inputs": [],
      "name": "auctionStart",
      "outputs": [
        {
          "internalType": "uint256",
          "name": "",
          "type": "uint256"
        }
      ],
      "payable": false,
      "stateMutability": "view",
      "type": "function"
    },
    {
      "constant": true,
      "inputs": [],
      "name": "beneficiary",
      "outputs": [
        {
          "internalType": "address payable",
          "name": "",
          "type": "address"
        }
      ],
      "payable": false,
      "stateMutability": "view",
      "type": "function"
    },
    {
      "constant": true,
      "inputs": [],
      "name": "biddingTime",
      "outputs": [
        {
          "internalType": "uint256",
          "name": "",
          "type": "uint256"
        }
      ],
      "payable": false,
      "stateMutability": "view",
      "type": "function"
    },
    {
      "constant": true,
      "inputs": [],
      "name": "ended",
      "outputs": [
        {
          "internalType": "bool",
          "name": "",
          "type": "bool"
        }
      ],
      "payable": false,
      "stateMutability": "view",
      "type": "function"
    },
    {
      "constant": true,
      "inputs": [],
      "name": "highestBid",
      "outputs": [
        {
          "internalType": "uint256",
          "name": "",
          "type": "uint256"
        }
      ],
      "payable": false,
      "stateMutability": "view",
      "type": "function"
    },
    {
      "constant": true,
      "inputs": [],
      "name": "highestBidder",
      "outputs": [
        {
          "internalType": "address payable",
          "name": "",
          "type": "address"
        }
      ],
      "payable": false,
      "stateMutability": "view",
      "type": "function"
    },
    {
      "constant": false,
      "inputs": [],
      "name": "bid",
      "outputs": [],
      "payable": true,
      "stateMutability": "payable",
      "type": "function"
    },
    {
      "constant": false,
      "inputs": [],
      "name": "auctionEnd",
      "outputs": [],
      "payable": false,
      "stateMutability": "nonpayable",
      "type": "function"
    }
  ],
  "bytecode": "0x608060405234801561001057600080fd5b506040516106903803806106908339818101604052604081101561003357600080fd5b810190808051906020019092919080519060200190929190505050806000806101000a81548173ffffffffffffffffffffffffffffffffffffffff021916908373ffffffffffffffffffffffffffffffffffffffff160217905550426001819055508160028190555050506105e3806100ad6000396000f3fe60806040526004361061007b5760003560e01c80634f245ef71161004e5780634f245ef71461012757806391f9015714610152578063d074a38d146101a9578063d57bde79146101d45761007b565b806312fa6feb146100805780631998aeef146100af5780632a24f46c146100b957806338af3eed146100d0575b600080fd5b34801561008c57600080fd5b506100956101ff565b604051808215151515815260200191505060405180910390f35b6100b7610212565b005b3480156100c557600080fd5b506100ce61041f565b005b3480156100dc57600080fd5b506100e5610551565b604051808273ffffffffffffffffffffffffffffffffffffffff1673ffffffffffffffffffffffffffffffffffffffff16815260200191505060405180910390f35b34801561013357600080fd5b5061013c610576565b6040518082815260200191505060405180910390f35b34801561015e57600080fd5b5061016761057c565b604051808273ffffffffffffffffffffffffffffffffffffffff1673ffffffffffffffffffffffffffffffffffffffff16815260200191505060405180910390f35b3480156101b557600080fd5b506101be6105a2565b6040518082815260200191505060405180910390f35b3480156101e057600080fd5b506101e96105a8565b6040518082815260200191505060405180910390f35b600560009054906101000a900460ff1681565b6002546001540142111561028e576040517f08c379a00000000000000000000000000000000000000000000000000000000081526004018080602001828103825260168152602001807f4c61207375626173746120686120657870697261646f0000000000000000000081525060200191505060405180910390fd5b6004543411610305576040517f08c379a00000000000000000000000000000000000000000000000000000000081526004018080602001828103825260198152602001807f4c612073756261737461206465626520736572206d61796f720000000000000081525060200191505060405180910390fd5b60006004541461036a57600360009054906101000a900473ffffffffffffffffffffffffffffffffffffffff1673ffffffffffffffffffffffffffffffffffffffff166108fc6004549081150290604051600060405180830381858888f19350505050505b33600360006101000a81548173ffffffffffffffffffffffffffffffffffffffff021916908373ffffffffffffffffffffffffffffffffffffffff160217905550346004819055507ff4757a49b326036464bec6fe419a4ae38c8a02ce3e68bf0809674f6aab8ad3003334604051808373ffffffffffffffffffffffffffffffffffffffff1673ffffffffffffffffffffffffffffffffffffffff1681526020018281526020019250505060405180910390a1565b6002546001540142101561043257600080fd5b600560009054906101000a900460ff161561044c57600080fd5b6001600560006101000a81548160ff0219169083151502179055507fdaec4582d5d9595688c8c98545fdd1c696d41c6aeaeb636737e84ed2f5c00eda600360009054906101000a900473ffffffffffffffffffffffffffffffffffffffff16600454604051808373ffffffffffffffffffffffffffffffffffffffff1673ffffffffffffffffffffffffffffffffffffffff1681526020018281526020019250505060405180910390a16000809054906101000a900473ffffffffffffffffffffffffffffffffffffffff1673ffffffffffffffffffffffffffffffffffffffff166108fc6004549081150290604051600060405180830381858888f1935050505050565b6000809054906101000a900473ffffffffffffffffffffffffffffffffffffffff1681565b60015481565b600360009054906101000a900473ffffffffffffffffffffffffffffffffffffffff1681565b60025481565b6004548156fea265627a7a72315820c61909f19c452aaa2e4176eda9b7d441abe1b472db0dcfcc626594af9055dd1564736f6c63430005100032",
  "source": "pragma solidity >=0.4.25 <0.7.0;\r\n\r\ncontract Subasta {\r\n    // Parámetros de la subasta. Los tiempos son\r\n    // o timestamps estilo unix (segundos desde 1970-01-01)\r\n    // o periodos de tiempo en segundos.\r\n    address payable public beneficiary;\r\n    uint256 public auctionStart;\r\n    uint256 public biddingTime;\r\n\r\n    // Estado actual de la subasta.\r\n    address payable public highestBidder;\r\n    uint256 public highestBid;\r\n\r\n    // Fijado como true al final, no permite ningún cambio.\r\n    bool public ended;\r\n\r\n    // Eventos que serán emitidos al realizar algún cambio\r\n    event HighestBidIncreased(address bidder, uint256 amount);\r\n    event AuctionEnded(address winner, uint256 amount);\r\n\r\n    // Lo siguiente es lo que se conoce como un comentario natspec,\r\n    // se identifican por las tres barras inclinadas.\r\n    // Se mostrarán cuando se pregunte al usuario\r\n    // si quiere confirmar la transacción.\r\n\r\n    /// Crea una subasta sencilla con un periodo de pujas\r\n    /// de `_biddingTime` segundos. El beneficiario de\r\n    /// las pujas es la dirección `_beneficiary`.\r\n\r\n    constructor(uint256 _biddingTime, address payable _beneficiary) public {\r\n        beneficiary = _beneficiary;\r\n        auctionStart = now;\r\n        biddingTime = _biddingTime;\r\n    }\r\n\r\n    /// Puja en la subasta con el valor enviado\r\n    /// en la misma transacción.\r\n    /// El valor pujado sólo será devuelto\r\n    /// si la puja no es ganadora.\r\n    function bid() public payable {\r\n        // No hacen falta argumentos, toda\r\n        // la información necesaria es parte de\r\n        // la transacción. La palabra payable\r\n        // es necesaria para que la función pueda recibir Ether.\r\n\r\n        // Revierte la llamada si el periodo\r\n        // de pujas ha finalizado.\r\n        require(now <= (auctionStart + biddingTime), \"La subasta ha expirado\");\r\n\r\n        // Si la puja no es la más alta,\r\n        // envía el dinero de vuelta.\r\n        require(msg.value > highestBid, \"La subasta debe ser mayor\");\r\n\r\n        if (highestBid != 0) {\r\n            // Devolver el dinero usado\r\n            highestBidder.send(highestBid);\r\n        }\r\n        highestBidder = msg.sender;\r\n        highestBid = msg.value;\r\n        emit HighestBidIncreased(msg.sender, msg.value);\r\n    }\r\n\r\n    /// Finaliza la subasta y envía la puja más alta al beneficiario.\r\n    function auctionEnd() public {\r\n        // Es una buena práctica estructurar las funciones que interactúan\r\n        // con otros contratos (i.e. llaman a funciones o envían ether)\r\n        // en tres fases:\r\n        // 1. comprobación de las condiciones\r\n        // 2. ejecución de las acciones (pudiendo cambiar las condiciones)\r\n        // 3. interacción con otros contratos\r\n        // Si estas fases se entremezclasen, otros contratos podrían\r\n        // volver a llamar a este contrato y modificar el estado\r\n        // o hacer que algunas partes (pago de ether) se ejecute multiples veces.\r\n        // Si se llama a funciones internas que interactúan con otros contratos,\r\n        // deben considerarse como interacciones con contratos externos.\r\n\r\n        // 1. Condiciones\r\n        require(now >= (auctionStart + biddingTime)); // la subasta aún no ha acabado\r\n        require(!ended); // esta función ya ha sido llamada\r\n\r\n        // 2. Ejecución\r\n        ended = true;\r\n        emit AuctionEnded(highestBidder, highestBid);\r\n\r\n        // 3. Interacción\r\n        beneficiary.send(highestBid);\r\n    }\r\n}\r\n",
  "sourcePath": "D:\\Julian\\Documents\\Especializacion\\SmartContract y BlockChain\\MetaCoin\\contracts\\Subasta.sol",
  "compiler": {
    "name": "solc",
    "version": "0.5.16+commit.9c3226ce.Emscripten.clang"
  },
  "schemaVersion": "3.3.0",
  "updatedAt": "2020-12-13T03:52:43.404Z",
  "devdoc": {
    "methods": {}
  },
  "userdoc": {
    "methods": {
      "auctionEnd()": {
        "notice": "Finaliza la subasta y envía la puja más alta al beneficiario."
      },
      "bid()": {
        "notice": "Puja en la subasta con el valor enviado en la misma transacción. El valor pujado sólo será devuelto si la puja no es ganadora."
      },
      "constructor": "Crea una subasta sencilla con un periodo de pujas de `_biddingTime` segundos. El beneficiario de las pujas es la dirección `_beneficiary`."
    }
  }
}