{
  "contractName": "Subasta",
  "abi": [
    {
      "anonymous": false,
      "inputs": [
        {
          "indexed": false,
          "internalType": "address",
          "name": "winner",
          "type": "address"
        },
        {
          "indexed": false,
          "internalType": "uint256",
          "name": "amount",
          "type": "uint256"
        }
      ],
      "name": "AuctionEnded",
      "type": "event"
    },
    {
      "anonymous": false,
      "inputs": [
        {
          "indexed": false,
          "internalType": "address",
          "name": "bidder",
          "type": "address"
        },
        {
          "indexed": false,
          "internalType": "uint256",
          "name": "amount",
          "type": "uint256"
        }
      ],
      "name": "HighestBidIncreased",
      "type": "event"
    },
    {
      "constant": true,
      "inputs": [],
      "name": "auctionStart",
      "outputs": [
        {
          "internalType": "uint256",
          "name": "",
          "type": "uint256"
        }
      ],
      "payable": false,
      "stateMutability": "view",
      "type": "function"
    },
    {
      "constant": true,
      "inputs": [],
      "name": "beneficiary",
      "outputs": [
        {
          "internalType": "address payable",
          "name": "",
          "type": "address"
        }
      ],
      "payable": false,
      "stateMutability": "view",
      "type": "function"
    },
    {
      "constant": true,
      "inputs": [],
      "name": "biddingTime",
      "outputs": [
        {
          "internalType": "uint256",
          "name": "",
          "type": "uint256"
        }
      ],
      "payable": false,
      "stateMutability": "view",
      "type": "function"
    },
    {
      "constant": true,
      "inputs": [],
      "name": "highestBid",
      "outputs": [
        {
          "internalType": "uint256",
          "name": "",
          "type": "uint256"
        }
      ],
      "payable": false,
      "stateMutability": "view",
      "type": "function"
    },
    {
      "constant": true,
      "inputs": [],
      "name": "highestBidder",
      "outputs": [
        {
          "internalType": "address",
          "name": "",
          "type": "address"
        }
      ],
      "payable": false,
      "stateMutability": "view",
      "type": "function"
    },
    {
      "constant": false,
      "inputs": [
        {
          "internalType": "uint256",
          "name": "_biddingTime",
          "type": "uint256"
        },
        {
          "internalType": "address payable",
          "name": "_beneficiary",
          "type": "address"
        }
      ],
      "name": "SimpleAuction",
      "outputs": [],
      "payable": false,
      "stateMutability": "nonpayable",
      "type": "function"
    },
    {
      "constant": false,
      "inputs": [],
      "name": "bid",
      "outputs": [],
      "payable": true,
      "stateMutability": "payable",
      "type": "function"
    },
    {
      "constant": false,
      "inputs": [],
      "name": "withdraw",
      "outputs": [
        {
          "internalType": "bool",
          "name": "",
          "type": "bool"
        }
      ],
      "payable": false,
      "stateMutability": "nonpayable",
      "type": "function"
    },
    {
      "constant": false,
      "inputs": [],
      "name": "auctionEnd",
      "outputs": [],
      "payable": false,
      "stateMutability": "nonpayable",
      "type": "function"
    }
  ],
  "bytecode": "0x608060405234801561001057600080fd5b506107d4806100206000396000f3fe6080604052600436106100865760003560e01c80634f245ef7116100595780634f245ef71461013257806391f901571461015d578063d074a38d146101b4578063d57bde79146101df578063ffb3401d1461020a57610086565b80631998aeef1461008b5780632a24f46c1461009557806338af3eed146100ac5780633ccfd60b14610103575b600080fd5b610093610265565b005b3480156100a157600080fd5b506100aa610489565b005b3480156100b857600080fd5b506100c16105cc565b604051808273ffffffffffffffffffffffffffffffffffffffff1673ffffffffffffffffffffffffffffffffffffffff16815260200191505060405180910390f35b34801561010f57600080fd5b506101186105f1565b604051808215151515815260200191505060405180910390f35b34801561013e57600080fd5b50610147610715565b6040518082815260200191505060405180910390f35b34801561016957600080fd5b5061017261071b565b604051808273ffffffffffffffffffffffffffffffffffffffff1673ffffffffffffffffffffffffffffffffffffffff16815260200191505060405180910390f35b3480156101c057600080fd5b506101c9610741565b6040518082815260200191505060405180910390f35b3480156101eb57600080fd5b506101f4610747565b6040518082815260200191505060405180910390f35b34801561021657600080fd5b506102636004803603604081101561022d57600080fd5b8101908080359060200190929190803573ffffffffffffffffffffffffffffffffffffffff16906020019092919050505061074d565b005b600254600154014211156102e1576040517f08c379a00000000000000000000000000000000000000000000000000000000081526004018080602001828103825260168152602001807f4c61207375626173746120686120657870697261646f0000000000000000000081525060200191505060405180910390fd5b6004543411610358576040517f08c379a00000000000000000000000000000000000000000000000000000000081526004018080602001828103825260198152602001807f4c612073756261737461206465626520736572206d61796f720000000000000081525060200191505060405180910390fd5b6000600454146103d45760045460056000600360009054906101000a900473ffffffffffffffffffffffffffffffffffffffff1673ffffffffffffffffffffffffffffffffffffffff1673ffffffffffffffffffffffffffffffffffffffff168152602001908152602001600020600082825401925050819055505b33600360006101000a81548173ffffffffffffffffffffffffffffffffffffffff021916908373ffffffffffffffffffffffffffffffffffffffff160217905550346004819055507ff4757a49b326036464bec6fe419a4ae38c8a02ce3e68bf0809674f6aab8ad3003334604051808373ffffffffffffffffffffffffffffffffffffffff1673ffffffffffffffffffffffffffffffffffffffff1681526020018281526020019250505060405180910390a1565b6002546001540142101561049c57600080fd5b600660009054906101000a900460ff16156104b657600080fd5b6001600660006101000a81548160ff0219169083151502179055507fdaec4582d5d9595688c8c98545fdd1c696d41c6aeaeb636737e84ed2f5c00eda600360009054906101000a900473ffffffffffffffffffffffffffffffffffffffff16600454604051808373ffffffffffffffffffffffffffffffffffffffff1673ffffffffffffffffffffffffffffffffffffffff1681526020018281526020019250505060405180910390a16000809054906101000a900473ffffffffffffffffffffffffffffffffffffffff1673ffffffffffffffffffffffffffffffffffffffff166108fc6004549081150290604051600060405180830381858888f193505050501580156105c9573d6000803e3d6000fd5b50565b6000809054906101000a900473ffffffffffffffffffffffffffffffffffffffff1681565b600080600560003373ffffffffffffffffffffffffffffffffffffffff1673ffffffffffffffffffffffffffffffffffffffff168152602001908152602001600020549050600081111561070c576000600560003373ffffffffffffffffffffffffffffffffffffffff1673ffffffffffffffffffffffffffffffffffffffff168152602001908152602001600020819055503373ffffffffffffffffffffffffffffffffffffffff166108fc829081150290604051600060405180830381858888f1935050505061070b5780600560003373ffffffffffffffffffffffffffffffffffffffff1673ffffffffffffffffffffffffffffffffffffffff168152602001908152602001600020819055506000915050610712565b5b60019150505b90565b60015481565b600360009054906101000a900473ffffffffffffffffffffffffffffffffffffffff1681565b60025481565b60045481565b806000806101000a81548173ffffffffffffffffffffffffffffffffffffffff021916908373ffffffffffffffffffffffffffffffffffffffff1602179055504260018190555081600281905550505056fea265627a7a7231582024fed8ff560c084136d5aacb7abc6c6af841e2b55d730b41ab8114717fa21a7164736f6c63430005100032",
  "source": "pragma solidity >=0.4.25 <0.7.0;\r\n\r\ncontract Subasta {\r\n    // Parámetros de la subasta. Los tiempos son\r\n    // o timestamps estilo unix (segundos desde 1970-01-01)\r\n    // o periodos de tiempo en segundos.\r\n    address payable public beneficiary;\r\n    uint public auctionStart;\r\n    uint public biddingTime;\r\n\r\n    // Estado actual de la subasta.\r\n    address public highestBidder;\r\n    uint public highestBid;\r\n\r\n    // Retiradas de dinero permitidas de las anteriores pujas\r\n    mapping(address => uint) pendingReturns;\r\n\r\n    // Fijado como true al final, no permite ningún cambio.\r\n    bool ended;\r\n\r\n    // Eventos que serán emitidos al realizar algún cambio\r\n    event HighestBidIncreased(address bidder, uint amount);\r\n    event AuctionEnded(address winner, uint amount);\r\n\r\n    // Lo siguiente es lo que se conoce como un comentario natspec,\r\n    // se identifican por las tres barras inclinadas.\r\n    // Se mostrarán cuando se pregunte al usuario\r\n    // si quiere confirmar la transacción.\r\n\r\n    /// Crea una subasta sencilla con un periodo de pujas\r\n    /// de `_biddingTime` segundos. El beneficiario de\r\n    /// las pujas es la dirección `_beneficiary`.\r\n    function SimpleAuction(\r\n        uint _biddingTime,\r\n        address payable _beneficiary\r\n    ) public {\r\n        beneficiary = _beneficiary;\r\n        auctionStart = now;\r\n        biddingTime = _biddingTime;\r\n    }\r\n\r\n    /// Puja en la subasta con el valor enviado\r\n    /// en la misma transacción.\r\n    /// El valor pujado sólo será devuelto\r\n    /// si la puja no es ganadora.\r\n    function bid() public payable {\r\n        // No hacen falta argumentos, toda\r\n        // la información necesaria es parte de\r\n        // la transacción. La palabra payable\r\n        // es necesaria para que la función pueda recibir Ether.\r\n\r\n        // Revierte la llamada si el periodo\r\n        // de pujas ha finalizado.\r\n        require(now <= (auctionStart + biddingTime),\"La subasta ha expirado\");\r\n\r\n        // Si la puja no es la más alta,\r\n        // envía el dinero de vuelta.\r\n        require(msg.value > highestBid,\"La subasta debe ser mayor\");\r\n\r\n        if (highestBid != 0) {\r\n            // Devolver el dinero usando\r\n            // highestBidder.send(highestBid) es un riesgo\r\n            // de seguridad, porque la llamada puede ser evitada\r\n            // por el usuario elevando la pila de llamadas a 1023.\r\n            // Siempre es más seguro dejar que los receptores\r\n            // saquen su propio dinero.\r\n            pendingReturns[highestBidder] += highestBid;\r\n        }\r\n        highestBidder = msg.sender;\r\n        highestBid = msg.value;\r\n        emit HighestBidIncreased(msg.sender, msg.value);\r\n    }\r\n\r\n    /// Retira una puja que fue superada.\r\n    function withdraw() public returns (bool) {\r\n        uint amount = pendingReturns[msg.sender];\r\n        if (amount > 0) {\r\n            // Es importante poner esto a cero porque el receptor\r\n            // puede llamar de nuevo a esta función como parte\r\n            // de la recepción antes de que `send` devuelva su valor.\r\n            pendingReturns[msg.sender] = 0;\r\n\r\n            if (!msg.sender.send(amount)) {\r\n                // Aquí no es necesario lanzar una excepción.\r\n                // Basta con reiniciar la cantidad que se debe devolver.\r\n                pendingReturns[msg.sender] = amount;\r\n                return false;\r\n            }\r\n        }\r\n        return true;\r\n    }\r\n\r\n    /// Finaliza la subasta y envía la puja más alta al beneficiario.\r\n    function auctionEnd() public {\r\n        // Es una buena práctica estructurar las funciones que interactúan\r\n        // con otros contratos (i.e. llaman a funciones o envían ether)\r\n        // en tres fases:\r\n        // 1. comprobación de las condiciones\r\n        // 2. ejecución de las acciones (pudiendo cambiar las condiciones)\r\n        // 3. interacción con otros contratos\r\n        // Si estas fases se entremezclasen, otros contratos podrían\r\n        // volver a llamar a este contrato y modificar el estado\r\n        // o hacer que algunas partes (pago de ether) se ejecute multiples veces.\r\n        // Si se llama a funciones internas que interactúan con otros contratos,\r\n        // deben considerarse como interacciones con contratos externos.\r\n\r\n        // 1. Condiciones\r\n        require(now >= (auctionStart + biddingTime)); // la subasta aún no ha acabado\r\n        require(!ended); // esta función ya ha sido llamada\r\n\r\n        // 2. Ejecución\r\n        ended = true;\r\n        emit AuctionEnded(highestBidder, highestBid);\r\n\r\n        // 3. Interacción\r\n        beneficiary.transfer(highestBid);\r\n    }\r\n}",
  "sourcePath": "D:/Julian/Documents/Especializacion/SmartContract y BlockChain/MetaCoin/contracts/Subasta.sol",
  "compiler": {
    "name": "solc",
    "version": "0.5.16+commit.9c3226ce.Emscripten.clang"
  },
  "schemaVersion": "3.3.0",
  "updatedAt": "2020-12-07T01:20:10.292Z",
  "devdoc": {
    "methods": {}
  },
  "userdoc": {
    "methods": {
      "SimpleAuction(uint256,address)": {
        "notice": "Crea una subasta sencilla con un periodo de pujas de `_biddingTime` segundos. El beneficiario de las pujas es la dirección `_beneficiary`."
      },
      "auctionEnd()": {
        "notice": "Finaliza la subasta y envía la puja más alta al beneficiario."
      },
      "bid()": {
        "notice": "Puja en la subasta con el valor enviado en la misma transacción. El valor pujado sólo será devuelto si la puja no es ganadora."
      },
      "withdraw()": {
        "notice": "Retira una puja que fue superada."
      }
    }
  }
}