{
  "contractName": "Subasta",
  "abi": [
    {
      "inputs": [
        {
          "internalType": "uint256",
          "name": "_biddingTime",
          "type": "uint256"
        },
        {
          "internalType": "address payable",
          "name": "_beneficiary",
          "type": "address"
        }
      ],
      "payable": false,
      "stateMutability": "nonpayable",
      "type": "constructor"
    },
    {
      "anonymous": false,
      "inputs": [
        {
          "indexed": false,
          "internalType": "address",
          "name": "winner",
          "type": "address"
        },
        {
          "indexed": false,
          "internalType": "uint256",
          "name": "amount",
          "type": "uint256"
        }
      ],
      "name": "AuctionEnded",
      "type": "event"
    },
    {
      "anonymous": false,
      "inputs": [
        {
          "indexed": false,
          "internalType": "address",
          "name": "bidder",
          "type": "address"
        },
        {
          "indexed": false,
          "internalType": "uint256",
          "name": "amount",
          "type": "uint256"
        }
      ],
      "name": "HighestBidIncreased",
      "type": "event"
    },
    {
      "constant": true,
      "inputs": [],
      "name": "auctionStart",
      "outputs": [
        {
          "internalType": "uint256",
          "name": "",
          "type": "uint256"
        }
      ],
      "payable": false,
      "stateMutability": "view",
      "type": "function"
    },
    {
      "constant": true,
      "inputs": [],
      "name": "beneficiary",
      "outputs": [
        {
          "internalType": "address payable",
          "name": "",
          "type": "address"
        }
      ],
      "payable": false,
      "stateMutability": "view",
      "type": "function"
    },
    {
      "constant": true,
      "inputs": [],
      "name": "biddingTime",
      "outputs": [
        {
          "internalType": "uint256",
          "name": "",
          "type": "uint256"
        }
      ],
      "payable": false,
      "stateMutability": "view",
      "type": "function"
    },
    {
      "constant": true,
      "inputs": [],
      "name": "highestBid",
      "outputs": [
        {
          "internalType": "uint256",
          "name": "",
          "type": "uint256"
        }
      ],
      "payable": false,
      "stateMutability": "view",
      "type": "function"
    },
    {
      "constant": true,
      "inputs": [],
      "name": "highestBidder",
      "outputs": [
        {
          "internalType": "address",
          "name": "",
          "type": "address"
        }
      ],
      "payable": false,
      "stateMutability": "view",
      "type": "function"
    },
    {
      "constant": false,
      "inputs": [],
      "name": "bid",
      "outputs": [],
      "payable": true,
      "stateMutability": "payable",
      "type": "function"
    },
    {
      "constant": false,
      "inputs": [],
      "name": "withdraw",
      "outputs": [
        {
          "internalType": "bool",
          "name": "",
          "type": "bool"
        }
      ],
      "payable": false,
      "stateMutability": "nonpayable",
      "type": "function"
    },
    {
      "constant": false,
      "inputs": [],
      "name": "auctionEnd",
      "outputs": [],
      "payable": false,
      "stateMutability": "nonpayable",
      "type": "function"
    }
  ],
  "bytecode": "0x608060405234801561001057600080fd5b506040516107c93803806107c98339818101604052604081101561003357600080fd5b810190808051906020019092919080519060200190929190505050806000806101000a81548173ffffffffffffffffffffffffffffffffffffffff021916908373ffffffffffffffffffffffffffffffffffffffff1602179055504260018190555081600281905550505061071c806100ad6000396000f3fe60806040526004361061007b5760003560e01c80634f245ef71161004e5780634f245ef71461012757806391f9015714610152578063d074a38d146101a9578063d57bde79146101d45761007b565b80631998aeef146100805780632a24f46c1461008a57806338af3eed146100a15780633ccfd60b146100f8575b600080fd5b6100886101ff565b005b34801561009657600080fd5b5061009f610423565b005b3480156100ad57600080fd5b506100b6610566565b604051808273ffffffffffffffffffffffffffffffffffffffff1673ffffffffffffffffffffffffffffffffffffffff16815260200191505060405180910390f35b34801561010457600080fd5b5061010d61058b565b604051808215151515815260200191505060405180910390f35b34801561013357600080fd5b5061013c6106af565b6040518082815260200191505060405180910390f35b34801561015e57600080fd5b506101676106b5565b604051808273ffffffffffffffffffffffffffffffffffffffff1673ffffffffffffffffffffffffffffffffffffffff16815260200191505060405180910390f35b3480156101b557600080fd5b506101be6106db565b6040518082815260200191505060405180910390f35b3480156101e057600080fd5b506101e96106e1565b6040518082815260200191505060405180910390f35b6002546001540142111561027b576040517f08c379a00000000000000000000000000000000000000000000000000000000081526004018080602001828103825260168152602001807f4c61207375626173746120686120657870697261646f0000000000000000000081525060200191505060405180910390fd5b60045434116102f2576040517f08c379a00000000000000000000000000000000000000000000000000000000081526004018080602001828103825260198152602001807f4c612073756261737461206465626520736572206d61796f720000000000000081525060200191505060405180910390fd5b60006004541461036e5760045460056000600360009054906101000a900473ffffffffffffffffffffffffffffffffffffffff1673ffffffffffffffffffffffffffffffffffffffff1673ffffffffffffffffffffffffffffffffffffffff168152602001908152602001600020600082825401925050819055505b33600360006101000a81548173ffffffffffffffffffffffffffffffffffffffff021916908373ffffffffffffffffffffffffffffffffffffffff160217905550346004819055507ff4757a49b326036464bec6fe419a4ae38c8a02ce3e68bf0809674f6aab8ad3003334604051808373ffffffffffffffffffffffffffffffffffffffff1673ffffffffffffffffffffffffffffffffffffffff1681526020018281526020019250505060405180910390a1565b6002546001540142101561043657600080fd5b600660009054906101000a900460ff161561045057600080fd5b6001600660006101000a81548160ff0219169083151502179055507fdaec4582d5d9595688c8c98545fdd1c696d41c6aeaeb636737e84ed2f5c00eda600360009054906101000a900473ffffffffffffffffffffffffffffffffffffffff16600454604051808373ffffffffffffffffffffffffffffffffffffffff1673ffffffffffffffffffffffffffffffffffffffff1681526020018281526020019250505060405180910390a16000809054906101000a900473ffffffffffffffffffffffffffffffffffffffff1673ffffffffffffffffffffffffffffffffffffffff166108fc6004549081150290604051600060405180830381858888f19350505050158015610563573d6000803e3d6000fd5b50565b6000809054906101000a900473ffffffffffffffffffffffffffffffffffffffff1681565b600080600560003373ffffffffffffffffffffffffffffffffffffffff1673ffffffffffffffffffffffffffffffffffffffff16815260200190815260200160002054905060008111156106a6576000600560003373ffffffffffffffffffffffffffffffffffffffff1673ffffffffffffffffffffffffffffffffffffffff168152602001908152602001600020819055503373ffffffffffffffffffffffffffffffffffffffff166108fc829081150290604051600060405180830381858888f193505050506106a55780600560003373ffffffffffffffffffffffffffffffffffffffff1673ffffffffffffffffffffffffffffffffffffffff1681526020019081526020016000208190555060009150506106ac565b5b60019150505b90565b60015481565b600360009054906101000a900473ffffffffffffffffffffffffffffffffffffffff1681565b60025481565b6004548156fea265627a7a72315820c737792c94871ce7f5fc95622330805658727c3dfadd608a8bc192ce46dfe44f64736f6c63430005100032",
  "source": "pragma solidity >=0.4.25 <0.7.0;\r\n\r\ncontract Subasta {\r\n    // Parámetros de la subasta. Los tiempos son\r\n    // o timestamps estilo unix (segundos desde 1970-01-01)\r\n    // o periodos de tiempo en segundos.\r\n    address payable public beneficiary;\r\n    uint256 public auctionStart;\r\n    uint256 public biddingTime;\r\n\r\n    // Estado actual de la subasta.\r\n    address public highestBidder;\r\n    uint256 public highestBid;\r\n\r\n    // Retiradas de dinero permitidas de las anteriores pujas\r\n    mapping(address => uint256) pendingReturns;\r\n\r\n    // Fijado como true al final, no permite ningún cambio.\r\n    bool ended;\r\n\r\n    // Eventos que serán emitidos al realizar algún cambio\r\n    event HighestBidIncreased(address bidder, uint256 amount);\r\n    event AuctionEnded(address winner, uint256 amount);\r\n\r\n    // Lo siguiente es lo que se conoce como un comentario natspec,\r\n    // se identifican por las tres barras inclinadas.\r\n    // Se mostrarán cuando se pregunte al usuario\r\n    // si quiere confirmar la transacción.\r\n\r\n    /// Crea una subasta sencilla con un periodo de pujas\r\n    /// de `_biddingTime` segundos. El beneficiario de\r\n    /// las pujas es la dirección `_beneficiary`.\r\n\r\n    constructor(uint256 _biddingTime, address payable _beneficiary) public {\r\n        beneficiary = _beneficiary;\r\n        auctionStart = now;\r\n        biddingTime = _biddingTime;\r\n    }\r\n\r\n    /// Puja en la subasta con el valor enviado\r\n    /// en la misma transacción.\r\n    /// El valor pujado sólo será devuelto\r\n    /// si la puja no es ganadora.\r\n    function bid() public payable {\r\n        // No hacen falta argumentos, toda\r\n        // la información necesaria es parte de\r\n        // la transacción. La palabra payable\r\n        // es necesaria para que la función pueda recibir Ether.\r\n\r\n        // Revierte la llamada si el periodo\r\n        // de pujas ha finalizado.\r\n        require(now <= (auctionStart + biddingTime), \"La subasta ha expirado\");\r\n\r\n        // Si la puja no es la más alta,\r\n        // envía el dinero de vuelta.\r\n        require(msg.value > highestBid, \"La subasta debe ser mayor\");\r\n\r\n        if (highestBid != 0) {\r\n            // Devolver el dinero usando\r\n            // highestBidder.send(highestBid) es un riesgo\r\n            // de seguridad, porque la llamada puede ser evitada\r\n            // por el usuario elevando la pila de llamadas a 1023.\r\n            // Siempre es más seguro dejar que los receptores\r\n            // saquen su propio dinero.\r\n            pendingReturns[highestBidder] += highestBid;\r\n        }\r\n        highestBidder = msg.sender;\r\n        highestBid = msg.value;\r\n        emit HighestBidIncreased(msg.sender, msg.value);\r\n    }\r\n\r\n    /// Retira una puja que fue superada.\r\n    function withdraw() public returns (bool) {\r\n        uint256 amount = pendingReturns[msg.sender];\r\n        if (amount > 0) {\r\n            // Es importante poner esto a cero porque el receptor\r\n            // puede llamar de nuevo a esta función como parte\r\n            // de la recepción antes de que `send` devuelva su valor.\r\n            pendingReturns[msg.sender] = 0;\r\n\r\n            if (!msg.sender.send(amount)) {\r\n                // Aquí no es necesario lanzar una excepción.\r\n                // Basta con reiniciar la cantidad que se debe devolver.\r\n                pendingReturns[msg.sender] = amount;\r\n                return false;\r\n            }\r\n        }\r\n        return true;\r\n    }\r\n\r\n    /// Finaliza la subasta y envía la puja más alta al beneficiario.\r\n    function auctionEnd() public {\r\n        // Es una buena práctica estructurar las funciones que interactúan\r\n        // con otros contratos (i.e. llaman a funciones o envían ether)\r\n        // en tres fases:\r\n        // 1. comprobación de las condiciones\r\n        // 2. ejecución de las acciones (pudiendo cambiar las condiciones)\r\n        // 3. interacción con otros contratos\r\n        // Si estas fases se entremezclasen, otros contratos podrían\r\n        // volver a llamar a este contrato y modificar el estado\r\n        // o hacer que algunas partes (pago de ether) se ejecute multiples veces.\r\n        // Si se llama a funciones internas que interactúan con otros contratos,\r\n        // deben considerarse como interacciones con contratos externos.\r\n\r\n        // 1. Condiciones\r\n        require(now >= (auctionStart + biddingTime)); // la subasta aún no ha acabado\r\n        require(!ended); // esta función ya ha sido llamada\r\n\r\n        // 2. Ejecución\r\n        ended = true;\r\n        emit AuctionEnded(highestBidder, highestBid);\r\n\r\n        // 3. Interacción\r\n        beneficiary.transfer(highestBid);\r\n    }\r\n}\r\n",
  "sourcePath": "D:\\Julian\\Documents\\Especializacion\\SmartContract y BlockChain\\MetaCoin\\contracts\\Subasta.sol",
  "compiler": {
    "name": "solc",
    "version": "0.5.16+commit.9c3226ce.Emscripten.clang"
  },
  "schemaVersion": "3.3.0",
  "updatedAt": "2020-12-08T22:30:36.003Z",
  "devdoc": {
    "methods": {}
  },
  "userdoc": {
    "methods": {
      "auctionEnd()": {
        "notice": "Finaliza la subasta y envía la puja más alta al beneficiario."
      },
      "bid()": {
        "notice": "Puja en la subasta con el valor enviado en la misma transacción. El valor pujado sólo será devuelto si la puja no es ganadora."
      },
      "constructor": "Crea una subasta sencilla con un periodo de pujas de `_biddingTime` segundos. El beneficiario de las pujas es la dirección `_beneficiary`.",
      "withdraw()": {
        "notice": "Retira una puja que fue superada."
      }
    }
  }
}